:020000040800F2
:10000000202600200D020008EF2D000847220008DE
:10001000ED2D00089F030008F94F000800000000C4
:100020000000000000000000000000007533000820
:1000300081040008000000007B2F000891350008B3
:1000400027020008270200082702000827020008EC
:1000500027020008270200082702000827020008DC
:1000600027020008270200082702000827020008CC
:1000700027020008270200082702000827020008BC
:1000800027020008270200082702000827020008AC
:10009000270200082702000827020008270200089C
:1000A000B1370008270200082702000827020008CD
:1000B000270200082702000827020008270200087C
:1000C000270200082702000827020008270200086C
:1000D000270200082702000827020008270200085C
:1000E000270200082702000827020008270200084C
:1000F000270200082702000827020008270200083C
:10010000270200082702000827020008270200082B
:10011000270200082702000827020008270200081B
:10012000270200082702000827020008270200080B
:1001300027020008270200082702000827020008FB
:10014000270200082702000827020008F12D0008F6
:1001500027020008270200082702000827020008DB
:1001600027020008270200082702000827020008CB
:1001700027020008270200082702000800000000EC
:1001800027020008270200082702000827020008AB
:10019000270200082702000827020008270200089B
:1001A000270200082702000827020008270200088B
:1001B000270200082702000827020008270200087B
:1001C000270200082702000800000000270200089C
:1001D000270200082702000827020008270200085B
:1001E000270200082702000827020008270200084B
:1001F0002702000827020008DFF80CD000F08EF874
:1002000000480047A55000082026002006488047E7
:1002100006480047FEE7FEE7FEE7FEE7FEE7FEE7EB
:10022000FEE7FEE7FEE7FEE759360008F9010008A1
:100230002DE9F05F0546002092469B46884606461B
:10024000814640241BE0284641464746224600F0AE
:1002500054F853465A46C01A914110D311461846D5
:10026000224600F03BF82D1A67EB01084F46224664
:100270000120002100F032F817EB00094E41201E4A
:10028000A4F10104DFDC484631462A464346BDE876
:10029000F09F00000649074A0868504343F23902BC
:1002A000104408604008704701490860704700002A
:1002B000C40800206D4EC64140EA01039B0703D0ED
:1002C00009E008C9121F08C0042AFAD203E011F895
:1002D000013B00F8013B521EF9D27047202A04DB93
:1002E000203A00FA02F1002070479140C2F1200349
:1002F00020FA03F3194390407047202A04DB203A88
:1003000021FA02F00021704721FA02F3D040C2F135
:10031000200291400843194670470000064C074DE3
:1003200006E0E06840F0010394E8070098471034C5
:10033000AC42F6D3FFF764FFC4550008E45500084B
:1003400070B58D1810F8014B14F0030201D110F8AC
:10035000012B231106D110F8013B03E010F8016BCB
:1003600001F8016B521EF9D1ABB110F8012B04F06A
:100370000C048A1A0C2C03D0A2EB84129B1C08E0FC
:1003800010F8014BA2EB0422F8E712F8014B01F838
:10039000014B5B1EF9D5A942D4D3002070BDFEE706
:1003A0001F4B0020F0B51968890311D4BFF34F8F9C
:1003B000BFF36F8F1B490860BFF34F8FBFF36F8F81
:1003C000196841F400311960BFF34F8FBFF36F8F8D
:1003D0001968C90323D4124970310860BFF34F8FE5
:1003E000081F43F6FF7400680E4D1035C0F34E3100
:1003F000C0F3C90204EA4116104600BF46EA8077FE
:100400002F60401EFAD2491EF4D2BFF34F8F1868F6
:1004100040F480301860BFF34F8FBFF36F8FF0BD93
:1004200014ED00E050EF00E01349124810B50860E9
:10043000084600F092F8D0B9104800210A46016041
:10044000416001460C4800F067F880B90B49102262
:10045000094800F061F850B90748002100F0CCF8D5
:1004600028B90548102100F0C7F8002801D000F095
:100470004BF810BD00740040300A0020B00000208E
:10048000704700002DE9F0411D4D00201D4CF42364
:1004900040211027E8727F22687208266B751F239F
:1004A00021706070A170E070217167711E27A171C9
:1004B000E3711C2322726072A072E772237314230B
:1004C0006673A073E3733023227466747426A17478
:1004D000E174782123756275A675E07521766076E2
:1004E000A076E2766873C0B2215C01F05BFF687BA6
:1004F000401CC0B268731C28F5D3BDE8F081000031
:10050000040000205016002001220248910300F050
:10051000B5F9FEE70004024070B54379012B1AD00B
:100520000124447102230371056840F6FE76D1E987
:1005300000310B4329689640B1439340C0260B43DA
:100540002B60016896400A68B2430A600023047178
:100550004371184670BD022070BD70B5040003D011
:100560002079002510B105E0012070BD204665719D
:1005700000F008F80221217101202561207100207E
:1005800070BD0000134870B586B0016841F00101EC
:100590000160006800F0010005900E48103001680D
:1005A00041F0005101600068032400250A4E00F06C
:1005B00000500590102069468DE83100304600F06B
:1005C00065F8202069468DE83100304600F05EF87D
:1005D00006B070BD303802400000024008B5002966
:1005E000016800910068104404D01430009003604A
:1005F000002008BD0830F9E730B54279012A17D04C
:100600000122427102240471002902FA01F30168F7
:100610000C6844EA03040C6001680B680AD00D689A
:1006200003F48024B4F5802F05F460130FD015E097
:10063000022030BD0C6803F00403042B04F03804DE
:100640000CD1382C0AD14B6843F0010305E0B3F517
:10065000601F03D14B6843F002034B60002102711D
:100660004171084630BD000070B5044600F00CF939
:100670000546601C02D004480078044400F004F9E8
:10068000401BA042FAD370BD000800202DE9F84FAE
:10069000DFF89CE100224FF001084FF0030B4FF010
:1006A0000F0A00BF0B6808FA02F42340A34271D17D
:1006B0004D68022D01D0122D0FD1D5080E695707B4
:1006C00000EB8505A9462D6AFF0E0AFA07FCBE401D
:1006D00025EA0C052E43C9F820600F7955000668FD
:1006E0000BFA05FC07F0030726EA0C06AF40374378
:1006F00007604E68012E05D0022E03D0112E01D0C6
:10070000122E0ED18668CF6826EA0C06AF4037431A
:10071000876046680F79A643C7F3001797403743B1
:100720004760C4688E6824EA0C04AE402643C66065
:100730004C68E40075D53F4C256845F4804525603C
:10074000246822F00306950704F4804400943A4C90
:100750002D0F2644D6F80848DFF8E0C00AFA05F75E
:10076000604524EA070401D100272EE0344FB84247
:1007700001D1012729E0334FB84201D1022724E0FB
:10078000314FB84201D103271FE0304FB84202D1A8
:1007900004271AE045E02E4FB84201D1052714E0A6
:1007A0002C4FB84201D106270FE02B4FB84201D1A0
:1007B00007270AE0294FB84201D1082705E0284F52
:1007C000B84201D1092700E00A27AF402743754608
:1007D000C6F808784E68DEF80040F60324EA030401
:1007E00000D51C43124E2C60361D4D683468AD0395
:1007F00024EA030400D51C430D4F346008374D68CC
:100800003C68ED0224EA030400D51C43084D3C601B
:100810000C354E682C68B60224EA030400D51C434C
:100820002C60521C102AFFF43DAFBDE8F88F000089
:10083000003C0140443802400030014000000240CA
:100840000004024000080240000C02400010024078
:100850000014024000180240001C02400020024028
:10086000002402400069084000D00120704742691E
:1008700031EA020200D10904816170470AB1816145
:1008800070470904FBE700000148806870470000DA
:100890000008002002488168027811448160704796
:1008A00000080020094810B5016841F4007101609A
:1008B000016841F480710160032000F083F80F208B
:1008C00000F006F800F024F8002010BD003C0240C3
:1008D00070B50D4D04464FF47A700C4A29781268B1
:1008E000B0FBF1F0B2FBF0F001F0C3FA48B9102C04
:1008F00007D200222146501E00F044F800206C6010
:1009000070BD012070BD0000000800200000002024
:10091000032010B500F056F800226FF00B001146CE
:1009200000F030F800226FF00A00114600F02AF8BB
:1009300000226FF00900114600F024F80022501F39
:10094000114600F01FF80022101F114600F01AF89F
:100950000022901E114600F015F80022BDE810405C
:10096000501E114600F00EB8002809DB410900F0C6
:100970001F028900012001F1E0219040C1F800012F
:10098000704700000E4BF0B41B680D46C3F3022302
:10099000C3F10706042E00D90426191D072901D228
:1009A000002300E0DB1E012404FA06F19C40491EEE
:1009B0002940641E994014402143F0BC04F01DBB43
:1009C0000CED00E0064900F0070210B54FF6FF04F9
:1009D0000868044B204040EA02201843086010BD1C
:1009E0000CED00E00000FA0501680123C0F8FC33BB
:1009F000002280F8F4238869044A40F0006088618E
:100A0000486D104348650020704700000300001047
:100A100070B5164D0446A1B1012911D12068D0F856
:100A2000001E41F00101C0F8001ED4F8000403F0DC
:100A300030FB206A002803D0286840F006002860B8
:100A400070BD206A28B102F0ADFD286820F00600D4
:100A500028602068D0F8001E21F00101C0F8001EB7
:100A6000D4F80004BDE8704003F0A3BA10ED00E034
:100A70000068416200207047F0B503685D6A39B1D3
:100A80009F6A4C1E00204FF4827605EB17450BE061
:100A900045EA0240986210E0471C06EB800053F8DC
:100AA00000C0F8B205EB1C45A042F5D34FF48070AE
:100AB00000EB810045EA02421A500020F0BDD0F858
:100AC000000403F0DCB9C1EBC10200EB8202D0F8F4
:100AD0000004926C03F031B9C1EBC10200EB820259
:100AE000D0F80004D2F8082203F088B9D0F8000446
:100AF00003F0C7B901F00F020B0670B5C2EBC201DB
:100B000004464FF001004FF0000504EB810103D5CE
:100B100081F83D003C3103E081F8FD5101F5FE71A3
:100B20000A7094F8BC23012A08D084F8BC0320681A
:100B300003F0A2FD002084F8BC5370BD022070BDFC
:100B400070B54268044601F00F00904201D90120BF
:100B500070BD01F00F024FF000050B06C2EBC201A1
:100B60004FF0010204EB810103D581F83D203C31B7
:100B700003E081F8FD5101F5FE718D70087094F865
:100B8000BC03012808D084F8BC23206803F050FF80
:100B9000002084F8BC5370BD022070BD2DE9F041E7
:100BA00001F00F0604460D064FF00100C6EBC6012A
:100BB0004FF0000504EB810103D581F83D003C3185
:100BC00003E081F8FD5101F5FE714F788A60CB702A
:100BD0000E7007B1CE80022B00D10D7194F8BC23AA
:100BE000012A09D084F8BC03206803F099FC284648
:100BF00084F8BC53BDE8F0810220FBE770B501F03A
:100C00000F050C460026C5EBC50100EB8101C1F8BC
:100C10000822C1E9843681F8FD6181F8FC5101F5B3
:100C2000FE710369012B00D10A612207027C006872
:100C300003D003F055FF002070BD03F045FEFAE736
:100C400070B50D464168044605F00F00884201D991
:100C5000012070BD29064FF000064FF0010207D5B4
:100C6000C0EBC00104EB810181F83D203C3107E07D
:100C7000C5EBC50104EB810181F8FD6101F5FE7151
:100C80008A70087094F8BC03012807D084F8BC234C
:100C9000206803F0F9FE280702D007E0022070BDAB
:100CA000217C04F57172206803F096FE002084F820
:100CB000BC6370BD2DE9F04101F00F050C46002624
:100CC000C5EBC501012700EB81018A64C1E9143637
:100CD00081F83D7001F83C5F0369012B00D10A6186
:100CE0002207027C006804D003F0FAFE0020BDE871
:100CF000F08103F0E9FDF9E72DE9FC5F04460068A7
:100D0000002681464D4604F004F800287ED1206874
:100D100004F02BF8002879D0206804F026F880072A
:100D200004D52068416901F002014161206804F0A6
:100D30001CF801034FF0010B04F57170009077D59A
:100D4000206803F0F1FFDFF838A407466EE0F807EB
:100D50006AD02068F1B204F000F88046C00707D0DE
:100D600005EB4611C1F808BB3146204602F046F8B3
:100D70005FEA087034D520682169012900EB46112B
:100D8000006C0190D1F8080B10D0FE4B019A9A42EA
:100D900015D1000403D54FF40040C1F8080B2046DC
:100DA00000F0E8FA2069012810D014E0019A5245B9
:100DB00005D9000403D54FF40040C1F8080B2046C4
:100DC00000F0D8FA01985045ECD804E020680121E1
:100DD000009A03F001FE05EB46110820C1F8080B4C
:100DE0005FEAC86004D505EB46111020C1F8080B76
:100DF0005FEA88600FD52069012804D120680121AD
:100E0000009A03F0E9FD05EB461101E0C7E10FE0B0
:100E10002020C1F8080B5FEA884005D505EB461194
:100E20004FF40050C1F8080B7F08761C002F8ED1BC
:100E3000206803F09AFF40034FF0000A60D5206855
:100E400003F06BFF0026074658E0F80754D02068EF
:100E5000F1B203F070FF8046C00726D0D5F83428E1
:100E600006F00F0C05EB46130BFA0CF08243C5F8A5
:100E70003428C3F808B92069012807D1C6EBC60099
:100E800004EB8000D0E91121114481642046F1B2C5
:100E9000FFF719FE2069012807D136B9206D20B966
:100EA00020680121009A03F097FD5FEA087004D5DD
:100EB00005EB46110820C1F808095FEAC86004D5AF
:100EC00005EB46111020C1F808095FEA486004D517
:100ED00005EB46114020C1F808095FEA887004D587
:100EE00005EB46110220C1F808095FEA086003D546
:100EF0003146204601F0F0FF7F08761C002FA4D178
:100F0000206803F032FF002811DAD5F8040820F039
:100F10000100C5F8040894F8F40301283BD02046EA
:100F200000F00CFA2068416901F00041416120683D
:100F300003F01BFF00050BD5D5F80808C00702D049
:100F4000204600F033FA2068416901F400614161F4
:100F5000206803F00AFF00010AD52068416901F00A
:100F60000061416194F8F403E0B1204600F01EFAFC
:100F7000206803F0FAFEC0046AD5D5F8040820F012
:100F80000100C5F804082068102103F0A3FE002129
:100F90004FF67F3227E00021204684F8F4A3FFF7C4
:100FA00037FDBFE784F8F4B32068406D0121C0F33A
:100FB0008300C4F8F8032046FFF72AFDD8E700BFF6
:100FC00005EB4110C0F80829D0F8003923F40013CC
:100FD000C0F80039C0F8082BD0F8003B23F4001308
:100FE000C0F8003B491C60688842E9D8D5F81C0865
:100FF00040F00110C5F81C08206B60B1D5F88408DA
:1010000040F00B00C5F88408D5F8440840F00B0008
:10101000C5F844080CE0D5F8140842F22B01084347
:10102000C5F81408D5F8100840F00B00C5F81008F2
:10103000D5F8000820F4FE60C5F80008217C20687F
:10104000009A03F0C9FC2068416901F480514161B4
:10105000206803F08AFE800417D5206803F0A0FA08
:10106000206803F049FE58B30320E06000F020FD43
:10107000227B0146206803F0B3FE204600F04EF9C3
:101080002068416901F400514161206803F06DFE60
:10109000C00639D52168886920F010008861D9F828
:1010A000207007F00F01C7F34340C1EBC1010228D4
:1010B00004EB810505F5FE7505D0062815D01EE068
:1010C000C4F80CA0D2E747F6F0710F4217D0C7F36F
:1010D0000A12E9681746484603F04BFEA969E8681A
:1010E0003944A9613844E86009E00099082248467B
:1010F00003F03FFEA969C7F30A100844A8612068FD
:10110000816941F010018161206803F02EFE000723
:1011100007D5204600F016F92068416901F0080162
:101120004161206803F021FEC00208D52046F1B2DB
:1011300000F037F82068416901F4801141612068AE
:1011400003F013FE800208D52046F1B200F02DF81E
:101150002068416901F400114161206803F005FE37
:10116000400007D52046FFF7AAFC2068416901F03E
:1011700080414161206803F0F8FD40070FD503E08E
:101180000A30544F0A31544F20684568680702D529
:101190002046FFF7ABFC2068416829434160BDE869
:1011A000FC9FD0F8000402F0B5BED0F8000402F0B5
:1011B000B3BE00002DE9F04104008AB004D094F8D9
:1011C000BD03002520B108E001200AB0BDE8F08190
:1011D000204684F8BC5300F063F8032084F8BD0374
:1011E000206803F06BFB04F1100168462822884652
:1011F000FFF762F894E80F0003F0ECF90227E0BB78
:101200002068002103F0C3FD0020012611E000BF8B
:10121000C0EBC001421C04EB810181F83D6081F804
:101220003F504D648D640D6581F83C00A1F842008B
:10123000D0B261688142EBD8002011E0C0EBC00160
:10124000421C04EB810181F8FD5181F8FF51C1F886
:101250000452C1F80852C1F8105281F8FC01D0B212
:1012600061688142EAD8282241466846FFF724F89F
:1012700094E80F0003F058FA10B184F8BD73A3E7A7
:10128000606A84F8385084F8BD63012802D1204692
:10129000FFF7AAFB206803F03BFA002095E7000067
:1012A00030B5006887B0B0F1A04F31D10024194D9E
:1012B00002214FF4E8500A238DE813000322694607
:1012C000CDE903232846FFF7E1F968156946CDE922
:1012D000000428460294FFF7D9F90F48016841F04D
:1012E00080010160006800F0800005900A4810301D
:1012F000016841F48041016000680022114600F459
:10130000804005904320FFF73DFB4320FFF72CFB77
:1013100007B030BD000002403438024010B504462A
:10132000C068012100B90021D4F8000402F053FE86
:10133000D4F80004BDE8104002F013BED0F8000459
:1013400002F037BED0F8000402F039BE10B50446F2
:1013500090F8BC0301280BD0012084F8381084F8E1
:10136000BC03206803F02AFD002084F8BC0310BDF4
:10137000022010BDD0F8002400F57171104602F073
:101380003DBE10B5044690F8BC0301280CD00120E6
:1013900084F8BC03206803F0AFF9206803F084FCF4
:1013A000002084F8BC0310BD022010BD10B5044617
:1013B000D0F8000402F06DFE2068D0F8001E41F065
:1013C0000101C0F8001E206A002804D0024801680C
:1013D00041F00601016010BD10ED00E01848F8B5BD
:1013E000016841F0805101600068164C00F08050A7
:1013F0000090206840F480302060FFF745FA4FF4F9
:101400007A76054605E000BFFFF73EFA401BB04282
:101410000FD86068C003F7D5206840F40030206022
:10142000FFF732FA054606E0FFF72EFA401BB042FE
:1014300001D90320F8BD60688003F5D50020F8BD10
:1014400040380240007000402DE9F84F0446007813
:10145000DFF824944FF000063746C0070ED0D9F8C5
:10146000001021F40001C9F80010D9F80010626BD7
:101470001143C9F80010606B00B90126FE4D2068C9
:10148000843500030ED5E16B286820F44010084332
:101490002860E06BB0F5801F01D010B102E001269A
:1014A00000E0012720684FF4800BC0020CD5216CAE
:1014B000286820F4400008432860206C584501D17A
:1014C000012601E000B901272068C10100D50126ED
:1014D000800666D5E8483830016841F080510160E7
:1014E0000068DFF898A300F080500090DAF8001050
:1014F00041F48071CAF80010FFF7C6F9804605E094
:10150000FFF7C2F9A0EB080064287DD8DAF80000E4
:10151000C005F5D5DFF8608308F16808D8F8000049
:1015200010F440702AD0218E01F44071814225D000
:10153000D8F80010D8F8002021F4407142F480322D
:10154000C8F80020D8F8002022F48032C8F8002023
:10155000C8F80010D8F80000C0070FD0FFF794F9C2
:10156000824607E0FFF790F9A0EB0A0141F28830CC
:101570008142CAD8D8F800008007F3D5206BC0F3A9
:10158000012103297ED0D9F8001021F4F811C9F8FF
:101590000010228ED8F80010C2F30B021143C8F8D5
:1015A00000102078C00607D5286820F080702860D9
:1015B0002868A16B084328602188AF488830490417
:1015C00005D5626E016821F4403111430160218824
:1015D000090405D5A26E016821F440211143016080
:1015E0002168C90305D5E26E016821F44011114359
:1015F00001602168890305D5226F016821F440014B
:1016000011430160217800E034E1490605D5626CA0
:10161000016821F00301114301602178090605D515
:10162000A26C016821F00C01114301602188C905F9
:1016300005D5E26C016821F0300111430160218879
:10164000890505D5226D016821F0C00111430160B3
:101650002188490505D5626D016821F44071114367
:1016600001602188090505D5A26D016821F440615A
:10167000114301602188C90407D5E26D016821F496
:10168000405100E05FE0114301602188890405D5E5
:10169000226E016821F44041114301602168490232
:1016A00005D5A26F016821F08061114301602168B6
:1016B0004FF0006A890209D5E26F016821F00061EC
:1016C00011430160E16F514500D1012721680A07EC
:1016D00000D50127490305D5626F016821F04071EB
:1016E000114301602168090206D5D4F88020016801
:1016F00021F08051114301602168490106D5D4F8D9
:101700008420016821F0005111430160206800012C
:1017100006D5D4F88810286820F0007008432860A7
:101720002068C00006D5D4F88C10286820F08060AE
:1017300008432860DFF84891012E0ED02068B0F1F0
:10174000007F0AD08FE04F4AD9F80030104023F4D0
:10175000F8120243C9F800201BE7D9F800004E46F2
:1017600020F08060C9F80000FFF78EF8804605E0A1
:10177000FFF78AF8A0EB080064287BD830680001E6
:10178000F6D421783C487C30C90712D0616B81B90E
:10179000237A62680168D0F800C09201C1F3014168
:1017A00042EA0142CCF3036142EA016141EA03717A
:1017B000016021680A0303D5E26BB2F5801F04D0F3
:1017C000C9021AD5216C594517D16368016894F88C
:1017D0000CC002689B01C1F3014143EA0141C2F31D
:1017E000027241EA0C6141EA027101602968626A91
:1017F00021F01F01521E114329602168C90110D533
:10180000238A62680168D0F800C09201C1F30361C5
:1018100042EA034242EA0162CCF3027142EA0171F8
:101820000160216889010CD56168228A237B94F8C4
:1018300008C0890141EA024141EA036141EA0C71B1
:1018400001603168B04641F080613160FFF71CF8FB
:10185000064604E0FFF718F8801B64280AD8D8F879
:1018600000000001F6D5E7B3D9F800004E4620F09D
:10187000805009E07BE00000083802400070004022
:1018800000380240FFFCFF0FC9F80000FEF7FCFF24
:10189000074604E0FEF7F8FFC01B642867D83068ED
:1018A000C0438000F6D5216835480A0301D5E26BB4
:1018B0001AB1C9021DD5216CD9B963690168277EA7
:1018C00002689B01C1F3014143EA0143C2F3027183
:1018D00043EA076242EA0171016029686FF0FF0381
:1018E00000E04BE0A26A21F4F85103EB022211431D
:1018F00029602168890212D5E16F51450FD1238CEF
:101900006269016807689201C1F3036142EA034218
:1019100042EA0162C7F3027142EA01710160217873
:10192000090716D561690268D0F800C08B01277FCE
:10193000C2F30362CCF3014143EA014141EA02618F
:1019400041EA077101602868E16A20F440300843E9
:101950002860306840F080503060FEF795FF044604
:1019600008E000BFFEF790FF001B642802D90320A7
:10197000BDE8F88F3068C0438000F3D40020F7E75B
:10198000883802402DE9F04705000F4663D0444EE9
:10199000306800F00F00B84209D2306820F00F0024
:1019A00038433060306800F00F00B84253D12868E7
:1019B0003C4C810712D5400703D5206840F4E05025
:1019C00020602878000703D5206840F4604020603C
:1019D000A968206820F0F000084320602878C0073C
:1019E0002AD0304968680839012810D009680228CF
:1019F00010D0890700292EDA216821F00301014364
:101A00002160FEF741FF804641F288390DE0096808
:101A10008903EFE78901EDE7FEF736FFA0EB080148
:101A2000494502D90320BDE8F0876868216801F0C4
:101A30000C01B1EB800FEFD1306800F00F00B8421D
:101A40000BD9306820F00F0038433060306800F068
:101A50000F00B84201D00120E5E72878400705D5FE
:101A6000E968206820F4E0500843206028780007E7
:101A700006D52869216821F4604141EAC000206050
:101A800000F01CF82168084AC1F30311515CC840FA
:101A9000064908600F20FEF71BFF0020C3E7000087
:101AA000003C02400838024030540008000000208A
:101AB000014800687047000000000020154910B57B
:101AC0001548096811F00C0213D04110042A0FD0F8
:101AD000082A0ED10F4C241F2268236802F03F020F
:101AE0005B0207D52068C0F38810A0FB010106E067
:101AF000084610BD2168C1F38811A1FB0001002335
:101B0000FEF796FB2168C1F30141491C4900B0FB77
:101B1000F1F010BD083802400024F4002DE9F84F20
:101B200005004FF000076ED02878DFF82093A9F168
:101B3000040AC007AAF104044CD0D9F800104846A2
:101B4000C1F38101012908D00068C0F38100022897
:101B50000AD1DAF80000400206D52068800339D5A2
:101B600068680028DFD035E06868B0F5803F0BD0AA
:101B700010B1B0F5A02F11D0206820F48030206083
:101B8000206820F4802002E0206840F4803020604B
:101B9000686890B1FEF778FE06460AE0206840F4D7
:101BA00080202060F0E700BFFEF76EFE801B6428F7
:101BB00072D820688003F7D50CE0FEF765FE064674
:101BC00005E000BFFEF760FE801B6428F0D82068A7
:101BD0008003F7D42878800742D5D9F8001048460A
:101BE00011F00C0F08D00068C0F3810002280BD15F
:101BF000DAF80000400207D42068800718D5E868AA
:101C0000012800D114E01EE1E8680028206817D000
:101C100040F001002060FEF737FE064605E000BFF9
:101C2000FEF732FE801B0228C2D820688007F7D555
:101C30002869216821F0F80141EAC00020600FE026
:101C400020F001002060FEF71FFE064605E000BF01
:101C5000FEF71AFE801B02281ED820688007F7D4E2
:101C60002878000729D5794869696C3000298046B1
:101C7000016812D041F001010160FEF705FE064641
:101C800005E000BFFEF700FE801B022804D8D8F84C
:101C900000008007F6D510E089E021F00101016025
:101CA000FEF7F2FD064604E0FEF7EEFD801B02287B
:101CB0007DD8D8F800008007F6D4287840076BD587
:101CC000DFF8888108F13808D8F80000C0000BD48C
:101CD000D8F8001041F08051C8F80010D8F8000082
:101CE000012700F08050009059480168C90512D4BE
:101CF0000168834641F480710160FEF7C5FD064628
:101D000005E000BFFEF7C0FD801B64284FD8DBF85C
:101D10000000C005F6D54D4EA868683601280AD0E7
:101D200008B1052811D0306820F00100306030681B
:101D300020F0040002E0306840F001003060A86844
:101D4000A0B1FEF7A1FD83460CE0306840F004002E
:101D50003060F0E7FEF798FDA0EB0B0141F2883010
:101D6000814268D830688007F4D50EE0FEF78CFD1C
:101D7000834607E0FEF788FDA0EB0B0141F28830B7
:101D8000814258D830688007F4D42FB1D8F80010B9
:101D900021F08051C8F80010A869E0B3D9F800100C
:101DA000C1F3810102294ED00228206800E042E000
:101DB00020F08070206003D0FEF766FD05463DE010
:101DC000FEF762FD064604E0FEF75EFD801B02287A
:101DD00031D820688001F7D4D5E90921DFF874C033
:101DE000D5E9070695F830304F0895F82C103043A8
:101DF0000CEB074545EA8212104340EA016040EAD5
:101E00000370CAF80000206840F080702060FEF780
:101E10003BFD054605E014E0FEF736FD401B0228B9
:101E200009D820688001F7D50BE000BFFEF72CFD34
:101E3000401B022802D90320BDE8F88F20688001EA
:101E4000F4D40020F8E70120F6E70000083802404B
:101E5000007000400000FFFF04284FF0E0200169FF
:101E600003D021F004010161704741F00401FAE759
:101E70007047401EB0F1807F10B501D3012010BD26
:101E80004FF0E02460610F21601703F0B6F80020E6
:101E9000A0610721216110BD10B5FFF7E9FF10BD5A
:101EA000704770477047000070B590F83C20012AD9
:101EB00024D0134C012580F83C50022280F83D20AC
:101EC00002685368A242966802D00E4CA24203D127
:101ED0004C6823F4700323430C6823F07003896873
:101EE0001C435460002326F0800602683143916051
:101EF00080F83D5080F83C30184670BD022070BD1F
:101F0000000001400004014010B5040003D094F823
:101F10003D0010B107E0012010BD002084F83C0016
:101F2000204600F00DF8022084F83D002068211DB5
:101F300001F01EFD012084F83D00002010BD0000CE
:101F40003A4808B5016841F001010160016801F0FB
:101F500001010091016841F002010160016801F096
:101F600002010091016841F004010160016801F083
:101F700004010091016841F008010160016801F06D
:101F800008010091016841F010010160016801F051
:101F900010010091016841F020010160016801F029
:101FA00020010091011D0A6842F002020A600A68DD
:101FB00002F0020200920A6842F480320A600A6863
:101FC00002F4803200920A6842F400320A600A6821
:101FD00002F4003200920A6842F480220A60096822
:101FE00001F480210091016841F040010160016825
:101FF00001F040010091016841F080010160016839
:1020000001F080010091016841F480710160006875
:102010000022032100F4807000901820FEF7B2FC2B
:10202000BDE808401820FEF79FBC00004038024081
:102030000A4B022180F83D1001688A681A40062A7E
:1020400006D0B2F5803F03D00A6842F001020A6070
:10205000012180F83D1000207047000007000100BA
:102060000168094ACB6843F00103CB6001688868C6
:102070001040062806D0B0F5803F03D0086840F035
:10208000010008600020704707000100022141F2B2
:10209000111380F83D1001680A6A1A4207D10A6AD2
:1020A0009B101A4203D10A6822F001020A60012142
:1020B00080F83D1000207047704770B504460068F6
:1020C00000250169C943890715D4C168C943890737
:1020D00011D4EA1E026101212177206880698007FE
:1020E000204602D0FFF7E8FF04E000F0A7F8204602
:1020F00000F0A5F8257720680169C943490717D47E
:10210000C168C943490713D402216FF00402026178
:1021100021772068806910F4407F204602D0FFF7C5
:10212000CBFF04E000F08AF8204600F088F825771D
:1021300020680169C943090716D4C168C943090762
:1021400012D404216FF00802026121772068C0696F
:102150008007204602D0FFF7AFFF04E000F06EF8E2
:10216000204600F06CF8257720680169C943C9064C
:1021700017D4C168C943C90613D408216FF01002EF
:10218000026121772068C06910F4407F204602D0A8
:10219000FFF792FF04E000F051F8204600F04FF8FE
:1021A000257720680169C943C90708D1C168C943B7
:1021B000C90704D1891E0161204600F041F820685A
:1021C0000169C943090609D4C168C943090605D490
:1021D0006FF0800101612046FFF763FE206801690E
:1021E000C943C90509D4C168C943090605D46FF4B8
:1021F000807101612046FFF753FE20680169C943E1
:10220000490609D4C168C943490605D46FF04001A5
:102210000161204600F016F820680169C94389066B
:102220000BD4C168C943890607D46FF0200101614E
:102230002046BDE87040FFF735BE70BD704770475F
:1022400002F05CBF7047FEE72DE9F0434F4A4FF0C4
:102250007E5710EE901A02F1180302EB800203EB96
:10226000800682ED000AB942F7EE001A86ED000AF8
:1022700001DDF0EE610AF5EEC00AF1EE10FA01D2CE
:10228000DFED430ADFF80481002208F1300808F18D
:102290009003A3F1480108F1180C08F13009B0EEE1
:1022A000602A08EB80080CEB800CC8ED000A71EE88
:1022B000C22A01F1180401F130058CED001A03EB7C
:1022C000800305EB800504EB800401EB800109EB42
:1022D000800CDFED304A9FED305ADFED305A9FED34
:1022E000306A00BFDCED000A10EE900AB0EE603AF2
:1022F000B84201DDF0EE610A93ED004A61EE043A66
:1023000063EEA43A43EE053ACCED003A23EEA53A4B
:1023100000EE863A70EE430AC6ED000A60EE820ACD
:1023200091ED003A43EE220A10EE900AC1ED000A48
:10233000B84202DDC1ED001A08E010EE900A10F17B
:10234000814F03D9FFEE000AC1ED000AD1ED000A6A
:1023500094ED003A521C60EE820AD2B2022A43EE99
:10236000220AC4ED000A60EE820A95ED003A43EEBF
:10237000220AC5ED000A20EE823A04EE223A83EDED
:10238000003AAFD3B0EE430ABDE8F083580900200D
:1023900000000000F4FD143F1904D63EEC51B83E95
:1023A0000AD7233FF0B5C1F180044FF6FF760A0942
:1023B000A1F1400306EAC4059FED5A0A1C28F2EE7B
:1023C000040A16D2DFE800F00E1016191B23252888
:1023D00036393B434B535B636B737B838B8E969B8E
:1023E0009DA2A4A6504A06E0402902D35A084F4BAA
:1023F0001A7088E04E4A117085E04E4BF8E700EE07
:10240000901A4D4AF8EE600A20EE800A0FE04B4B1E
:10241000EEE79A104A4BEBE700EE901AB1EE001A85
:10242000484AF8EE600A20EE800A20EE010A82EDAA
:10243000000A68E0444A118065E0444ADBE700EEA8
:10244000101A434AB8EE400A20EE200AEFE700EEE9
:10245000101A404AB8EE400A20EE200AE7E700EEE4
:10246000901A3D4AF8EE600A20EE800ADFE700EE9F
:10247000101A3A4AB8EE400A20EE200AD7E700EEDA
:10248000101A374AB8EE400A20EE200ACFE700EED5
:10249000101A344AB8EE400A20EE200AC7E700EED0
:1024A000901A314AF8EE600A20EE800ABFE700EE8B
:1024B000101A2E4AB8EE400A20EE200AB7E700EEC6
:1024C000901A2B4AF8EE600A20EE800AAFE700EE81
:1024D000901A284AF8EE600A20EE800AA7E7264BF9
:1024E0004A0985E700EE901A244AF8EE600A20EEC9
:1024F000800A9CE7224B06EA84021A8003E0214A04
:1025000000E0214A1580214A1154F0BD204A72E7AB
:10251000204B6DE700EE901A1F4AF8EE600A20EE9D
:10252000800A84E7F301013C0E000020090000202E
:102530000B000020050000206C0000200C00002093
:102540001A00002074000020340000200800002041
:102550007C000020800000208400002088000020F3
:102560008C000020900000209400002098000020A3
:102570006400002068000020070000207800002090
:102580003C0000203E0000204000002050160020AB
:102590000A00002006000020700000202DE9F04114
:1025A00043788278C17803F0F0009B4E4FEA201CFC
:1025B00098489A4CACF1080C994DBCF1070F9A4B16
:1025C00090F9007097481FD2DFE80CF0040F1E1F2F
:1025D000EE1EED0032703A44083A2970D1B2017013
:1025E0004FEA010002F00CFF0AE032703A44083A68
:1025F0002970D2B2027000291046F3D002F088FD93
:1026000080212046FEF733F9FEE088489FED880AD6
:10261000242A0270197075D024DC102A4DD012DCE7
:102620000C2A4FF6FF7069D006DC012A38D0022A46
:1026300038D0032A65D138E00D2A75D00E2A74D01F
:102640000F2A5ED1D5E0212A47D006DC112A36D0E8
:10265000122A37D0132A54D13CE0222A41D0232A0F
:102660004FD14CE02C2AF2EE040A6FD009DCA2F123
:102670002502072A45D2DFE802F0474F5961C76AB1
:102680007200322A73D006DC2D2A7CD0302A70D01A
:10269000312A36D189E0332A6CD0402A31D1AFE0DB
:1026A0006448AEE00809644989E000EE901A634886
:1026B000F8EE600A20EE800A8AE06148A1E008098D
:1026C00060497CE000EE901A5F48F8EE600A20EE68
:1026D000800A7DE008095D4971E0403988105C4955
:1026E0006DE000EE901AB1EE001A5A48F8EE600A5A
:1026F00020EE800A20EE010A6AE003E06BE0564813
:10270000018081E055487CE000EE101A5448B8EE94
:10271000400A20EE200A5BE000EE101A5148B8EEA5
:10272000400A20EE200A53E05BE060E000EE901AE1
:102730004D48F8EE600A20EE800A49E000EE101ADB
:102740004A48B8EE400A20EE200A41E013E000EECD
:10275000101A4748B8EE400A20EE200A38E000EE92
:10276000101A4448B8EE400A20EE200A30E024E077
:1027700009E010E025E000EE901A3F48F8EE600A0C
:1027800020EE800A24E000EE101A3C48B8EE400A21
:1027900020EE200A1CE000EE901A3948F8EE600A9C
:1027A00020EE800A14E032E02DE000EE901A354869
:1027B000F8EE600A20EE800A0AE048093249087003
:1027C00022E000EE901A3148F8EE600A20EE800A0E
:1027D00080ED000A18E0C1F1800100EA81002C4977
:1027E0000CE0C1F1800100EAC1002A4906E02A4854
:1027F00007E0C1F1800100EAC1002849088003E038
:102800002748017000E01A700020BDE8F0812548DB
:102810001970F6E719000020B800002000040240FB
:10282000B9000020BC000020BB000020BA0000203E
:10283000F301013C09000020060000207000002088
:102840000B000020050000206C0000200C00002080
:102850001A0000207400002034000020080000202E
:102860007C000020800000208400002088000020E0
:102870008C00002090000020940000209800002090
:10288000640000206800002007000020780000207D
:102890003C0000203E0000200A00002040000020F4
:1028A0000D0000200E000020F0B500270A4A0B4E54
:1028B0004FF4807E3B460AE0156810F803C05B1CAD
:1028C0006C1C744506F805C0146000D117608B427B
:1028D000F2D30020F0BD00001408002020210020C9
:1028E00052482DE9F047016886B041F004010160CB
:1028F000016801F004010591016841F08001016067
:10290000016801F080010591016841F00101016059
:10291000016801F001010591016841F002010160C7
:10292000016801F002010591016841F008010160B0
:10293000016801F008010591016841F04001016062
:1029400000680024DFF8E8904FF4005800F04000E1
:102950000590CDE90084694648460294FDF796FE4D
:1029600002256946322002AACDE900050326484621
:102970000B2782E8D000FDF789FE8620694602AA6F
:10298000CDE900052B4882E8D000FDF77FFE02AAC2
:10299000DFF8A4A06946504682E8D000CDE9008562
:1029A000FDF774FE44F281094FF00108CDF8009064
:1029B0006946CDE9018450460394FDF767FE402146
:1029C0000091CDE90184DFF87480694603944046A4
:1029D000FDF75CFE80206946CDE900044046029484
:1029E000FDF754FE30020294CDE900050720694648
:1029F000CDE903601248FDF749FE4FF420506946C7
:102A000002AACDE90005404682E8D000FDF73EFE6F
:102A1000002249465046FDF731FF00224046402142
:102A2000FDF72CFF06B0BDE8F0870000303802400B
:102A3000000802400000024000040240001802406A
:102A4000000C024009490022094810B501F040F984
:102A50000849074801F0AEFB0749054801F08CFB27
:102A6000BDE81040024801F0FDBB0000C00000209E
:102A70004018002088080020F80000202DE9F04FC1
:102A8000CF4A0023CF484FF6FF7502F58C71DFF86F
:102A90003883DFF838931268DFF834A3DFF834B3F3
:102AA000DFF834E3CD4C566A0E80A1F583663668B4
:102AB000766A4E80A1F576763668766A8E80A1F5C4
:102AC00066763668766ACE80A1F556763668766A7E
:102AD0000E81A1F526763668766A4E81A1F5467696
:102AE0003668766A8E81A1F536763668766ACE814A
:102AF000A1F506763668766A0E82A1F5EC76366820
:102B0000766A4E82A1F5CC763668766A8E82A1F519
:102B1000AC763668766ACE82526AC286028E0679B2
:102B200090ED131A05EA420500EE105A00EE906A85
:102B3000B8EE400AF8EE600A00EE810ABCEEC00A68
:102B400010EE105A45864578072D74D2DFE805F05F
:102B50000414243444546500C4464373457B6E1CFE
:102B6000F6B231F81570062E5CFA87F73F7821F837
:102B700015704673F2D35EE0CC464373457B6E1C02
:102B8000F6B231F81570062E5CFA87F73F7821F817
:102B900015704673F2D34EE0D4464373457B6E1CEA
:102BA000F6B231F81570062E5CFA87F73F7821F8F7
:102BB00015704673F2D33EE0DC464373457B6E1CD2
:102BC000F6B231F81570062E5CFA87F73F7821F8D7
:102BD00015704673F2D32EE0F4464373457B6E1CAA
:102BE000F6B231F81570062E5CFA87F73F7821F8B7
:102BF00015704673F2D31EE0DFF8E4C14373457BE2
:102C00006E1CF6B231F81570062E5CFA87F73F7825
:102C100021F815704673F2D30DE04373457B6E1CAB
:102C2000F6B231F81570062E54FA87F73F7821F87E
:102C300015704673F2D386780625072E17D2DFE883
:102C400006F004172A3D5063760046464573ECB201
:102C500004F1010C31F81450AF1856FA87F70CF054
:102C6000FF050C2D3F7821F814704573EFD36FE00A
:102C70004E464573ECB204F1010C31F81450AF1814
:102C800056FA87F70CF0FF050C2D3F7821F81470E9
:102C90004573EFD35CE056464573ECB204F1010C8A
:102CA00031F81450AF1856FA87F70CF0FF050C2DC9
:102CB0003F7821F814704573EFD349E05E464573C1
:102CC000ECB204F1010C31F81450AF1856FA87F742
:102CD0000CF0FF050C2D3F7821F814704573EFD3ED
:102CE00036E076464573ECB204F1010C31F814502D
:102CF000AF1856FA87F70CF0FF050C2D3F7821F836
:102D000014704573EFD323E0354E4573ECB204F1F4
:102D1000010C31F81450AF1856FA87F70CF0FF0584
:102D20000C2D3F7821F814704573EFD310E04573F4
:102D3000457B05F1010C31F81560B71854FA87F797
:102D40000CF0FF060C2E3F7821F815704673EFD378
:102D50004373D0ED1A2AB7EE001A234C71EE621AB3
:102D6000DFED200A90ED1B2ABFEE000ADAB2551CF7
:102D700001EB420631F8123004EB8202B6895F00A3
:102D800001EE107AEBB27500B8EE411A062B81EE17
:102D9000203A01EE105AB8EE411AC1EE203A33EE55
:102DA000001A21EE221A33EE803A01EE831A21EE48
:102DB000021A82ED001A4373D8D3BDE8F08F0000E9
:102DC000500D00200400002000020020000100201F
:102DD0000003002000040020000500200007002060
:102DE0000006002000007C43C8080020FEE7704772
:102DF0000148FDF781BF0000DC1A00202DE9F041F9
:102E00000E46016904460068202301294FF4004260
:102E1000016C00EB4615D5F8080B08D02C4FB942D1
:102E20004FD1010449D500BFC5F8082B4DE05FEA3A
:102E3000007CDFF8A0C004F5717711D5614503D996
:102E4000000401D5C5F8082B2046FEF793FA206848
:102E500001213A4601F0C0FD0820C5F8080B34E016
:102E60005FEA806E02D5C5F8083B2EE010F0280F0F
:102E70002BD1614501D90004D6D4D5F8102BC6EB6F
:102E8000C60004EB8000C2F31202D0F804128A1AC2
:102E9000C0F81422D0F808221144C0F808122046C5
:102EA000F1B2FDF719FE86B9D4F8100268B92068AE
:102EB00001213A4601F090FD07E0800601D5C5F8F2
:102EC000083B2046F1B2FDF707FE0020BDE8F08187
:102ED0000A31544F0A30544F2DE9F84F0E46056819
:102EE0008146C1EBC60100EB8104D4E914203C34D7
:102EF000904202D90120BDE8F88FA168101A8142E2
:102F000000D20846C01C05EB461887081BE000BF2E
:102F1000A268A0EB010A524500D2924699F810101F
:102F20000AF1030000911FFA8AF3E1688708284636
:102F3000F2B201F0C9FFE16801EB0A00E060A169AB
:102F400001EB0A00A061D8F8180980B2B84205D395
:102F5000D4E90501814201D20028D9D1D4E9050183
:102F6000884208D8D5F83418012006F00F029040A6
:102F70008143C5F834180020BDE7704710B54FF401
:102F80000064204600F0FAFB204600F017FC2046C3
:102F900000F02EFC204600F045FC204600F05CFCD2
:102FA000204600F0A7FC204600F070FC204600F010
:102FB00087FC204600F07AFB204600F091FB20467B
:102FC00000F0A8FB204600F0BFFB1748FFF75EF8B3
:102FD0001648FFF75BF815484030FFF757F81348DD
:102FE0008030FFF753F81148C030FFF74FF8104812
:102FF000FFF74CF80E488038FFF748F80C48403887
:10300000FFF744F80A488030FFF740F80648C03818
:10301000FFF73CF804488038FFF738F80248BDE86D
:1030200010404038FFF732B8500D0020500A002001
:10303000D00B00202DE9F04F89490026DFF824A2AB
:103040004FF0020B01F1800000F11E04CE73A21FAD
:10305000D0ED024A91ED175A90ED033AD0ED015AA6
:1030600090ED056AD1ED162A91ED1F4AD1ED1E6A49
:10307000D1ED181A91ED192AB7EE000A0AF6187E5A
:103080000AF148089FED787AA31DA8F13009C87BA2
:10309000155CFF2D7ED000EE905A9FED741A714F93
:1030A00008EB8005F8EE607AF8EE600A303707EB3F
:1030B0008007C7EE813AC0EE817A30EE611A70EE79
:1030C000420A03EEA11A87ED001A47EE820AC5ED07
:1030D000000A255C052D5BD2DFE805F05A031C5A77
:1030E0004000C0EE263A624F0AEB800507EB8007EE
:1030F000C7ED003A95ED001A03EEA01A11EE107A12
:1031000085ED001AB7F17E5F42DB85ED000A04F819
:1031100000B03DE0564F0AEB80053037A7F1180CA0
:1031200007EB80070CEB800C97ED001A70EE417AEC
:10313000C7EE843ACCED003AD5ED007A43EEE07A62
:10314000C5ED007AF4EEC17AF1EE10FA20D831EE36
:10315000221A032785ED001A275419E00AEB80058F
:10316000434F95ED001A483707EB8007C1EE253A2B
:10317000C7ED003A03EEE01A85ED001AB4EEE21A4C
:10318000F1EE10FA04D885ED007AFF272654175483
:103190001D5C00E01FE0052D5AD2DFE805F0590361
:1031A0001D593F00C0EE243A314F09EB800590379E
:1031B00007EB8007C7ED003A95ED001A03EEA01A61
:1031C00011EE107A85ED001AB7F17E5F40DB85EDD8
:1031D000000A03F800B03BE00EEB8007244D97EDAA
:1031E000001AA83505EB800C70EE413A09EB80051A
:1031F000C3EE837ACCED007AD5ED003A47EEE03AA3
:10320000C5ED003AF4EEC13AF1EE10FA20D871EEB5
:10321000050A0327C5ED000A1F5419E009EB8005D4
:10322000134F95ED001AD83707EB8007C1EE063A29
:10323000C7ED003A03EEE01A85ED001AB4EEC51AA8
:10324000F1EE10FA04D885ED007AFF271E541754CA
:10325000401CC0B2C8730628FFF419AFBDE8F08F58
:1032600004000020F8080020000000000000984240
:10327000501700202F48F0B5827A417902EE102ACB
:10328000B7EE001ADFED2D2AB8EE422A01EE901AB1
:10329000B0EE410A90ED123A02EE620AF8EE613A9F
:1032A000DFED250ADFED261A274F43EE830A80ED76
:1032B000110A20EE210AC2797E04244DC2F13F0397
:1032C000234CBDEEC00AFCEEE00A10EE102A10EE10
:1032D000901A9FED1C0A43FA82F21F4B114489B2E7
:1032E00081868279D0ED142A00EE902A194AB8EE30
:1032F000602AF8EE601AC2EE000A81EE802A31EEF2
:10330000600A02EE220A80ED150AF962F162296074
:10331000216011601960114C007A114D114A084466
:10332000114B1249124EE06228601060186008606C
:103330003060F0BD040000200000FD430000803C30
:10334000000060420000FE42002000402C040040CB
:103350002C0800402C0C00402C04014000100040C0
:103360002C1400402C4401402C4801402C180040F3
:103370002C1C0040704700002DE9F041FCF78AFF4B
:103380001821384C90FBF1F201FB120024306074DC
:10339000FCF780FF092690FBF6F70722042303259C
:1033A0000C2106FB1700C0B22074092816D2DFE8F2
:1033B00000F005070B0E114D4F525500A37400E0AD
:1033C000A574E274217509E00520A074F9E70B20CB
:1033D000A37401E00A20A574E27420757F21607C4B
:1033E00001F096FE607CA17C08447F21C0B201F010
:1033F0008FFE607CE17C08447F21C0B201F088FE32
:10340000607C217D08447F21C0B201F081FE4FF431
:10341000C860FDF729F9607C01F0F2FF607CA17CB7
:103420000844C0B201F0ECFF607CE17C0844C0B20B
:1034300001F0E6FF607C217D0844C0B201F0E0FFAE
:10344000BDE8F0414FF44870FDF70EB9A37400E0F9
:10345000A574E674B6E70620A57401E00820A374FD
:10346000E074AFE7040000202DE9F05F424C002536
:103470009FED420ADFF8088184ED100A08F6B8676C
:103480006573A7F5706606F1300906F1600A06F665
:10349000E86B607B08EB800107EB8002D1ED000A4E
:1034A00092ED001A06EB800109EB800260EE810AC2
:1034B00091ED000A0AEB800320EE800A81ED000AFC
:1034C000D2ED000A93ED002A0BEB800194ED151A62
:1034D00060EE820AD4ED1D1A91ED002A21EE211A28
:1034E00060EE820A60EE810A94ED1C1AFEF7ACFED3
:1034F000D4ED100A30EE200A84ED100A607B401CE7
:10350000C0B260730628C4D3D4ED101AB1EE081A05
:103510009FED1C0AC1EE810AB0EE401A1A4E4FF41C
:103520007A71C4ED100A00EE801ABCEEC10A10EEEA
:10353000100A83B2E385B4F91800421C26F8103053
:1035400010B22083884200D12583608B401C00B2DA
:103550006083884200D1658300220C481146FDF744
:103560003DF8B4F91A000022102136F81030BDE8F9
:10357000F05F0648FDF732B80400002000000000AC
:103580001009002000000045800E0020300A0020B5
:1035900010B5FDF77FF9FEF77FFCBDE8104001F0A4
:1035A0004CBD00002948F8B5016841F08051016028
:1035B000006800F0805000902548016841F44041C7
:1035C000016000680025102200F44040009021486E
:1035D0000224D8260121092704600823C0E90645F2
:1035E000C0E90312C0E90836C0E90A47FEF796FAB7
:1035F000C0B9FDF7F3FEA8B916484FF4A0510F2249
:103600001438C0E9025101610721C0E90024FEF726
:10361000B9F938B90F482105A438C5670160FDF72D
:1036200013FF08B1FCF770FFFEF742FA4FF47A710E
:10363000B0FBF1F0FEF71DFC0420FEF70DFCBDE829
:10364000F8400022501E1146FDF79CB94038024058
:1036500000700040340E0020104A30B51048146845
:1036600000210F4B44F470041460083305680D4AC0
:103670000D4C45F00105056019600368051D1340F8
:10368000074A03600C322C600568E305034C25F4FF
:1036900080250560803C1160236030BD88ED00E02E
:1036A00000380240FFFFF6FE103000240B490022D4
:1036B00070B5094D40F2FF140D608023C1E903424B
:1036C000C1E90102C1E905230846FEF71DFCBDE87A
:1036D00070400248FEF7ACBC00440140500C002092
:1036E0000B49002270B5094D40F2FF140D60802394
:1036F000C1E90342C1E90102C1E905230846FEF719
:1037000003FCBDE870400248FEF792BC004801404F
:10371000900C00200B49002270B5094D40F2FF14B7
:103720000D608023C1E90342C1E90102C1E905231B
:103730000846FEF7E9FBBDE870400248FEF778BC9A
:1037400000180040D00C00200B49002270B5094D34
:1037500040F2FF140D608023C1E90342C1E9010278
:10376000C1E905230846FEF7CFFBBDE870400248DB
:10377000FEF75EBC001C0040100D00200B4900222B
:1037800070B5094D40F2FF140D608023C1E903427A
:10379000C1E90102C1E905230846FEF7B5FBBDE812
:1037A00070400248FEF744BC00200040500D00204D
:1037B0000148FEF782BC0000100C00200B490022DB
:1037C00070B54FF0804540F2FF140D608023C1E9D1
:1037D0000342C1E90102C1E905230846FEF794FB53
:1037E000BDE870400148FEF723BC0000500A0020ED
:1037F0000B49002270B5094D40F2FF140D60802383
:10380000C1E90342C1E90102C1E905230846FEF707
:103810007BFBBDE870400248FEF70ABC0004004094
:10382000900A00200B49002270B5094D40F2FF14A8
:103830000D608023C1E90342C1E90102C1E905230A
:103840000846FEF761FBBDE870400248FEF7F0BB9A
:1038500000080040D00A00200B49002270B5094D35
:1038600040F2FF140D608023C1E90342C1E9010267
:10387000C1E905230846FEF747FBBDE87040024852
:10388000FEF7D6BB000C0040100B00200B490022B5
:1038900070B5094D40F2FF140D608023C1E9034269
:1038A000C1E90102C1E905230846FEF72DFBBDE889
:1038B00070400248FEF7BCBB00100040500B0020D7
:1038C0000B49002270B5094D40F2FF140D608023B2
:1038D000C1E90342C1E90102C1E905230846FEF737
:1038E00013FBBDE870400248FEF7A2BB0014004085
:1038F000900B00200B49002270B5094D40F2FF14D7
:103900000D608023C1E90342C1E90102C1E9052339
:103910000846FEF7F9FABDE870400248FEF788BB9A
:1039200000040140D00B00200F4940F2FF1370B596
:1039300000240C4D0D608022C1E90334C1E901046B
:10394000C1E905420846FEF7DFFA084820218460F5
:10395000016001460448FEF7A7FABDE8704002483E
:10396000FEF77EBB00400140100C0020440A0020FE
:10397000F0B5274B4FF0804E264D02689842264EF8
:10398000264F274C09D0704507D0A84205D0B04239
:1039900003D0B84201D0A04205D1D1F804C022F032
:1039A00070024CEA020298421BD0704519D0A8421E
:1039B00017D0B04215D0B84213D0A04211D0194D43
:1039C000A8420ED0184DA8420BD0184DA84208D0DE
:1039D000174DA84205D0174DA84202D0164DA84257
:1039E00003D1CD6822F440722A434D6922F080024F
:1039F0002A43026098428A68C2620A68826201D0E1
:103A0000A04201D10969016301214161F0BD0000BB
:103A1000000001400004004000080040000C00408D
:103A200000040140004001400044014000480140C2
:103A300000180040001C00400020004010B5D0F8E5
:103A40008C2252689047002010BD13460A46002180
:103A500010B500F076FA002010BD13460A4600218A
:103A600010B500F01FFB002010BD10B580210446EA
:103A700000F0EFFA2046BDE81040002100F0E9BA5E
:103A80000521002310B51A46C0F86C12194600F043
:103A900058FA002010BD10B5C2610223C0F86C3284
:103AA000134602620A46002100F0FCFA002010BD15
:103AB0000421002310B51A46C0F86C12194600F014
:103AC000F1FA002010BD000004A00A46024910B51A
:103AD00000F0D9F8004810BDE01E00204D494449CF
:103AE00020436F6E666967001220088000487047A7
:103AF000E400002004A00A46024910B500F0C3F813
:103B0000004810BDE01E00204D49444920496E7414
:103B10006572666163650000042008800048704794
:103B2000E000002004A00A46024910B500F0ABF8FE
:103B3000004810BDE01E0020416E656F2053747573
:103B400064696F0004A00A46024910B500F09BF8B2
:103B5000004810BDE01E00204E656F53796E7468FA
:103B60000000000004A00A46024910B500F08BF8DE
:103B7000004810BDE01E0020303030303030303092
:103B80003030314100000000F8B5044648880D4649
:103B9000010A06294CD006DC01290DD0022910D0DB
:103BA00003294FD11BE007294AD00F294AD1D4F865
:103BB0008812207CCA6937E0D4F88812207C0A6811
:103BC00032E0207C02260028D4F88C0205D0C16A9D
:103BD000684688470146467041E0816AF8E7C0B20E
:103BE00006282FD2DFE800F003080D12171CD4F8C6
:103BF0008812207C4A6817E0D4F88812207C8A68F2
:103C000012E0D4F88812207CCA680DE0D4F888123B
:103C1000207C0A6908E0D4F88812207C4A6903E015
:103C2000D4F88812207C8A6969469047014616E0DC
:103C3000207C38B9D4F88C02416B68468847F5E798
:103C4000207C20B129462046FFF70FFFF8BDD4F8AD
:103C50008C02016B68468847014607204870BDF812
:103C6000000048B1EA8852B1824200D9024620469B
:103C7000ADF80020FFF70FFFE8880028E6D12046C6
:103C8000FFF716FFF8BD70B500284FF000061ED0F4
:103C90000546344602E0641C6D1CE4B22B78002B10
:103CA000F9D1022505EB440414801278731C032516
:103CB0008A550024B21CCD5406E0551C8B54EAB240
:103CC000531C401C8C54DAB20378002BF5D170BD24
:103CD00010B580B1D0F88C3213B10023C0F88C320B
:103CE00009B1C0F888120121027080F8741200F046
:103CF000D3F8002010BD022010BD10B5D0F89802F6
:103D00000024FCF71DFF30B1012801D0022801D0AA
:103D1000022400E00124204610BD10B5D0F898021E
:103D20000024FCF7E7FE30B1012801D0022801D0C1
:103D3000022400E00124204610BD70B5164604465A
:103D400049B1D4F88C0242691AB194F8740203287C
:103D500050D0022070BDD4F86C32002504F114005C
:103D6000022B03D0042B3AD0C3B33CE0D0E90313B9
:103D7000994207D9C91AC1608AB231462046FFF775
:103D80006CFE12E08068B0FBF3F103FB110199B9FE
:103D9000984211D3D4F8701288420DD200222046E6
:103DA0001146FFF75AFEC4F8705200231A4619460E
:103DB000204600F0C6F816E0D4F88C02C16829B19C
:103DC00094F87402032801D12046884780212046B8
:103DD00000F03FF92046FFF753FE04E0FFE78021A3
:103DE000204600F036F994F87802012804D184F8CE
:103DF000785201E020469047002070BD70B515460E
:103E0000044649B1D4F88C0282691AB194F874025C
:103E1000032830D0022070BDD4F86C1204F5A070D5
:103E2000032902D005291ED027E0D0E903218A42C8
:103E30000BD9531AC3600846834200D30346294670
:103E40009AB22046FFF701FE17E0D4F88C02016910
:103E500029B194F87402032801D1204688472046EE
:103E6000FFF726FE09E00020C4F86C020146204658
:103E700000F0EFF801E020469047002070BD0020E0
:103E8000704710B5012180F87412D0F88C220179A6
:103E900052689047002010BD70B5017831BB1449BD
:103EA0000022022306254FF0A044C1F80004C0F808
:103EB00098120120C1E90332C1E90523CA610A62EF
:103EC0004A62C1E90B02C1E900450846FDF772F9F3
:103ED00007488021FCF7CCFD054840220021FCF773
:103EE000CBFD034880220121FCF7C6FD002070BDF8
:103EF000DC1A0020D0F8982201F07F000B06C0EBFE
:103F0000C00002EB800002D590F83E00704790F8A8
:103F1000FE017047002070470020704770B51D46B5
:103F2000D0F89802002413462A46FCF737FE30B139
:103F3000012801D0022801D0022400E001242046FB
:103F400070BD10B5D0F898020024FCF757FE30B1D0
:103F5000012801D0022801D0022400E001242046DB
:103F600010BD70B50022044640231146FFF7D6FF6E
:103F70004026C4F8506101253346002220468021A6
:103F8000C4F84451FFF7CAFFD4F8901200206662CB
:103F9000A56184F87452C4F86C026060C4F87C02B5
:103FA00029B1D4F88C0200214268204690470020B5
:103FB00070BD90F8751280F874120020704710B52B
:103FC00090F87412032904D1D0F88C12C96901B198
:103FD0008847002010BD01740020704710B5D0F84C
:103FE00098020024FDF7B2F930B1012801D002286F
:103FF00001D0022400E00124204610BD70B5044623
:1040000000F52070054600F0C1F8B4F886320121B1
:1040100094F8800210F01F02C4E99B130AD0012A11
:104020000DD0022A10D000F08001204600F011F8D7
:10403000002070BD2946204600F019F9F8E729460E
:10404000204600F046FAF3E72946204600F099F9A9
:10405000EEE710B5D0F898020024FCF7F1FD30B17E
:10406000012801D0022801D0022400E001242046CA
:1040700010BD10B5D0F898020024FDF782F930B1D8
:10408000012801D0022801D0022400E001242046AA
:1040900010BD90F87422042180F8752280F8741203
:1040A0000020704710B5D0F898020024FCF702FEFB
:1040B00030B1012801D0022801D0022400E00124FF
:1040C000204610BD03480178012901D1002101706B
:1040D000002070470C080020C1EBC10110B54FF45F
:1040E00005720446D0F8980202EB8101415AD4F8D7
:1040F000940289B2026805489047044A402301218E
:104100002046FFF71EFF002010BD0000E020002029
:10411000074910B504460020486081212046FFF77A
:10412000FCFD01212046FFF7F8FD002010BD000036
:104130000C080020652101800048704720080020FD
:1041400010B504460A4840230222812144602046DB
:10415000FFF7E4FE4023204602220121FFF7DEFEA6
:10416000044A402301212046FFF7EBFE002010BD4A
:104170000C080020E0200020002902464FF0020039
:1041800003D04FF00000C2F8941270470A78027012
:104190004A784270CB788A7802EB032242804B79CE
:1041A0000A7902EB032282808A79C97902EB012124
:1041B000C180704702464FF0000011B1C2F88C1266
:1041C00070470220704710B5D0F88C2202241AB133
:1041D0001268904700B90024204610BD70B5204DEC
:1041E000044688780E46C1B20129297031D894F866
:1041F000740202280BD003280FD031462046FFF767
:1042000034FC29782046BDE87040FFF717BCD9B1CF
:104210006160032084F8740209E071B1606888422B
:1042200012D0C1B22046FFF709FC29786160204610
:10423000FFF7C9FF02280CD006E00220616084F875
:1042400074022046FFF7FAFB2046BDE87040FFF7F6
:104250002FBC31462046BDE87040FFF706BC000089
:10426000C008002010B5FFF704FF002010BD2DE9A5
:10427000F0410A784FF0000612F0600208D0202AC0
:1042800001D0402A70D1D0F88C22926890476DE01E
:104290004B78002201250A2B66D2DFE803F0405D4F
:1042A0006557650805652C29FFF76EFC5EE004463E
:1042B0008888D8B9C888C8B94888802816D294F8A0
:1042C000742200F07F07032A10D03946204684F874
:1042D0007672FFF783FE2046FFF7EAFB1FB102204C
:1042E00084F8740242E084F874523FE020463BE0D8
:1042F000FFF774FF3AE0CB88012B35D190F8743288
:10430000012B04D0022B02D0032B2DD104E000F1AD
:1043100008018260012216E00122011D13E090F8DD
:104320007422012A03D0022A01D0032A1CD1CA8890
:10433000022A19D1D0F87C12C56009B10321C160ED
:10434000022200F10C01FFF7A6FB0FE049880129CA
:104350000CD1C0F87C5211E090F87432012B08D0D7
:10436000022B06D0032B04D0FFF77FFB3046BDE8BD
:10437000F08149880129F9D1C0F87C22FFF798FB28
:10438000F4E70A462DE9F041044610780979002740
:1043900010F060030AD0202B01D0402B50D1D4F86C
:1043A0008C0211468368204698478FE0C0F3411085
:1043B000012806D05078D0B301282AD003283FD155
:1043C00007E0D4F88C02114683682046BDE8F0412E
:1043D000184794F87402022802D0032872D10AE028
:1043E00071B380296ED02046FFF733FE802120462E
:1043F000FFF72FFE6AE0508838B931B1802904D028
:10440000D08810B92046FFF724FE2046FFF750FB66
:104410005CE094F874020228E2D0032852D150885C
:1044200098BB4806F1D02046FFF767FCEDE7FFE7B1
:1044300094F874020026022803D0032842D112E027
:1044400040E009B180293DD1080601F07F0000EB72
:10445000800004EB800101D5143101E001F5A07169
:1044600002220E602AE0080601F00F0000EB800037
:1044700004EB80000AD5806920B301F07F0000EBD7
:10448000800004EB800514350BE01FE0D0F84401F8
:10449000C0B101F07F0000EB800004EB800505F562
:1044A000A07541B1802906D02046FFF723FD10B149
:1044B0000120286000E02E60022229462046FFF7F6
:1044C000EAFA03E011462046FFF7CFFA3846BDE886
:1044D000F08170B5054608780C4610F0600003D0F6
:1044E000202801D0402816D195F87402012803D065
:1044F000022801D003280ED1207901280BD8D5F845
:104500008C02826828469047E188014306D12846FC
:10451000FFF7CEFA02E02846FFF7A7FA002070BDA9
:1045200070B54D7801230A78012D1C4C02F00F055F
:1045300003FA05F3D0F81C5817D000EB421245EAF5
:104540000343C0F81C38D2F8000B00040BD40B89CD
:10455000C978D2F8000BC3F30A03184344EA814137
:104560000843C2F8000B002070BD9EB23543C0F86E
:104570001C5800EB4213D3F800090004F3D40D8952
:10458000C978D3F80009C5F30A058904284341EA2C
:10459000825108432043C3F80009E4E7008000107B
:1045A000D0F800196FF30A01C0F80019D0F8081804
:1045B000C1F34101022905D1D0F8001941F00301EE
:1045C000C0F80019D0F8041841F48071C0F804183C
:1045D0000020704770B504460698049D0D99012887
:1045E00015D0E06840F04000E060204600F028F878
:1045F000A16B41F48031A163012D07D1A16841F085
:104600000601A160A16841F02001A16070BDA06B0E
:1046100001290A4A20F48030A063E06800EA020021
:10462000E060E06820F44010E06003D1E06840F40E
:104630008010E060204600F003F8DDE7BFFFBDFF1B
:104640000C49012202E0521C8A420BD80369002B5C
:10465000F9DA0369012243F00103036104E0521C0B
:104660008A4201D9032070470369DB07F7D1002094
:1046700070470000400D030030B54C7801220B78E4
:10468000012CD0F83C5803F00F0402FA04F417D0C0
:1046900025EA0444C0F83C480978D0F81C4801F0E9
:1046A0000F018A4000EB431124EA0243104AC0F88C
:1046B0001C38D1F8000B1040C1F8000B002030BDB1
:1046C000A4B2A543C0F83C580978D0F81C4801F0C2
:1046D0000F018A4092B29443064A00EB4311C0F89E
:1046E0001C48D1F800091040C1F80009E6E70000B5
:1046F0000078F3EF007833EC10B5D0F8041821F00F
:104700000201C0F804180320FBF7AEFF002010BD23
:1047100010B5D0F8041841F00201C0F804180320C5
:10472000FBF7A2FF002010BD2DE9F04F0E46044616
:104730000021DDE90B2BDDF840800D46099F08467E
:1047400004EB800CCCF80411401C0F28F8D3204651
:10475000A06BB8F1000F15D040F4001CC4F838C0AD
:1047600089460846C4F8000E2046D4F80018012AED
:10477000C4F8001834D0032A32D0D0F8001841F021
:10478000030111E020F4001CC4F838C0206840F098
:10479000400CC4F800C0206840F0800CC4F800C091
:1047A000DEE700BF41F00101C0F80018102100F061
:1047B00091FA00B10125204600F07CFA00B10125F4
:1047C00048464FF0006C4FF67F334FF0904AC4F8E4
:1047D0001098C4F81498C4F81C980021994619E060
:1047E000D0F80018002BDFD0DCE700BF04EB41124B
:1047F000D2F80039002B06DA11B1C2F800A904E0A2
:10480000C4F800C901E0C2F80009C2F81009C2F8F2
:104810000899491C8E42E9D8002113E004EB4112AB
:10482000D2F8003B002B06DA11B1C2F800AB04E06D
:10483000C4F800CB01E0C2F8000BC2F8100BC2F8BC
:10484000089B491C8E42E9D8D4F81018012F21F496
:1048500080722146C4F8102808D1144B144AC1F8BC
:104860003038D1F830181143C4F830186FF0804157
:10487000A06161611FB9A06940F01000A061A0694A
:10488000BBF1000F0B4A40EA0200A06103D0A0690F
:1048900040F00800A061B8F1010F03D1A0690649FA
:1048A0000843A0612846BDE8F08F000000018000A9
:1048B0000300010000383C8004000040816821F0C2
:1048C000010181600020704770B50B784E78414C33
:1048D0000D78012E00EB431320D0D3F8100B6FF3AB
:1048E0001200C3F8100BD3F8100B2040C3F8100BC4
:1048F000486908B188684861D3F8100B012A40F470
:104900000020C3F8100BD3F8100B8A68C2F3120210
:1049100040EA0200C3F8100B4FD052E04E69002E5F
:10492000D3F8106933D06FF31206C3F81069D3F8C7
:1049300010692640C3F810694E698C68A64200D9F8
:104940004C61D3F8104944F40024C3F81049D3F85B
:1049500010494E69C6F3120654EA0604C3F810491A
:10496000012A22D04A694AB10B78D0F834280121B3
:1049700003F00F0399400A43C0F8342800EB4510B8
:10498000D0F8001941F00441C0F800191FE026409A
:10499000C3F81069D3F8104944F40024C3F810494F
:1049A000D3F810496FF31204D8E709690029E5D05C
:1049B00000EB4512C2F81419E0E7C86808B1C3F863
:1049C000140BD3F8000B40F00440C3F8000B002098
:1049D00070BD0000FFFF07E010B5144C036CA3424C
:1049E00003D9D0F8003B002B1EDB0023C0F8103B9E
:1049F0000129D0F8101B41F40021C0F8101BD0F899
:104A0000101B41F01801C0F8101BD0F8101B41F02A
:104A1000C041C0F8101B07D1C0F8142BD0F8001B00
:104A200041F08021C0F8001B002010BD0A30544F17
:104A30000B784A78012A00EB43100BD0D0F8002BFA
:104A400022F40012C0F8002BC978032914D00229DF
:104A500012D017E0D0F8002922F40012C0F8002983
:104A6000C978032901D002290CD1D0F8001941F0EE
:104A70008051C0F8001905E0D0F8001B41F08051CA
:104A8000C0F8001B002070470A784B78D1B2012B88
:104A900000EB421012D0D0F8002B002A06DB29B11F
:104AA000D0F8001B21F08041C0F8001BD0F8001B9B
:104AB00041F40011C0F8001B00207047D0F8002915
:104AC000002A06DB29B1D0F8001921F08041C0F896
:104AD0000019D0F8001941F40011C0F80019EBE7F3
:104AE000F8B50B786FF060464F786E4DDCB2012F51
:104AF00000EB431326D0D3F8104B6FF31204C3F826
:104B0000104BD3F8104B2C40C3F8104B4D69002DBF
:104B100070D08C68D3F8107B25446D1EB5FBF4F47F
:104B2000A4B206EAC4452F43C3F8107BD3F8105B48
:104B30008E686643C6F312042543C3F8105B012A4E
:104B40007ED097E04F6927B3D3F810796FF312073F
:104B5000C3F81079D3F810792F40C3F810794F6952
:104B60008D68D3F810C92F447F1EB7FBF5F506EA10
:104B7000C54545EA0C05C3F81059D3F810594E69DC
:104B8000C6F312063543C3F81059CD78012D10D065
:104B90001BE0D3F810692E40C3F81069D3F8105900
:104BA00045F40025C3F81059D3F810596FF31205D6
:104BB00009E0D3F8105925F0C045C3F81059D3F8CF
:104BC000105945F00055C3F81059012A13D0CB787D
:104BD000012B18D04B692BB30E78D0F8343801254F
:104BE00006F00F06B5402B43C0F83438CB78012BC4
:104BF00009D017E02BE00B69002BF7D000EB441530
:104C0000C5F81439F2E7D0F80838DB0500EB441397
:104C1000D3F8005902D445F0005501E045F0805525
:104C2000C3F8005900EB4413D3F8004944F004449E
:104C3000C3F80049CB78012B32D100928B8A00E077
:104C400014E00A789BB2C96800F03EF928E08D684C
:104C5000D3F8104BC5F312052C43C3F8104BD3F80F
:104C6000104B44F40024C3F8104B68E7CA680AB13B
:104C7000C3F8142BC97801290CD1D0F80808C00555
:104C8000D3F8000B02D440F0005001E040F0805017
:104C9000C3F8000BD3F8000B40F00440C3F8000B3E
:104CA0000020F8BDFFFF07E0816841F0010181604D
:104CB00000207047064A102101610021491C9142E1
:104CC00001D9032070470369DB06F7D40020704741
:104CD000400D03002023074A43EA811303610021AA
:104CE000491C914201D90320704703699B06F7D400
:104CF00000207047400D0300D0F8080810F00600AF
:104D000004D0022803D0062801D0002070470320D9
:104D10007047406900F001007047D0F81818D0F8CB
:104D20001C08084080B27047D0F81818D0F81C084A
:104D30000840000C704710B5D0F8102801F00F03A0
:104D400000EB4114D0F83418D4F80809D94001F028
:104D5000010142EAC111084010BD00EB4111D1F838
:104D6000081BD0F814080840704741698069084062
:104D70007047D21C00F580509308002210B502E065
:104D80000468521C10C19A42FAD3084610BD10B5EF
:104D9000C268012922F0C042C26002D029B10120BC
:104DA00010BDC16841F0005102E0C16841F080418E
:104DB000C1603220FBF758FC002010BDD0F800285D
:104DC0004FF4FE6303EA011322F4FE62C0F80028E8
:104DD000D0F800181943C0F80018002070470000F0
:104DE000032A3ED1264A274B0A449A4201D20F2178
:104DF00038E0254A254B0A449A4201D20E2131E07F
:104E0000234A244B0A449A4201D20D212AE0224A25
:104E1000224B0A449A4201D20C2123E0204B214A22
:104E20000B44934201D20B211CE01F4B1F4A0B4441
:104E3000934201D20A2115E01D4B1E4A0B449342B6
:104E40000FD31D4B1D4A0B44934201D2082109E0A8
:104E50001B4B1C4A1944914201D2072102E0062152
:104E600000E00921C2684FF4705322F47052C2600E
:104E700003EA8123C1681943C16000207047000024
:104E8000405327FF00350C00401E1BFF40420F001F
:104E900000DC0BFF804F1200808CF9FE20D613003F
:104EA00060B6E5FE60E3160000D3CEFE40771B003F
:104EB000C05BB3FEC091210000CA91FE207538008E
:104EC000E05459FEE09C410010B5029C64B900EB2F
:104ED0000230DB1C00229B0800F5805002E010C964
:104EE0000460521C9A42FAD3002010BD3F48C18B87
:104EF000491E0904090CC18313D1818B028C114412
:104F000089B281837F2904D000294FF000011ED08F
:104F100000E001210023194301D051420184018F97
:104F2000C183818BB7EE000A01EE101ADFED300A63
:104F3000F8EE411AB0EE401A01EEE01A80ED121AB6
:104F4000818C491E0904090C818402D015E00123DB
:104F5000E1E7418CC28C114489B241847F2904D09D
:104F600000294FF000011AD000E00121002319436D
:104F700001D05142C184418F8184418C01EE101ACD
:104F8000F8EE411AB0EE401A01EEE01A80ED131A65
:104F9000418D491E0904090C418502D015E0012309
:104FA000E5E7018D828D114489B201857F2904D006
:104FB00000294FF0000116D000E001210023194321
:104FC00001D051428185818F4185018D9FED091A64
:104FD00000EE901AF8EE600AC0EE811A30EE610A17
:104FE00080ED140A70470123E9E700000400002067
:104FF0000000803C0000FE42FEE7090700284FEA5F
:10500000116104DB00F1E02080F80014704700F02B
:105010000F0000F1E02080F8141D704702E008C87E
:10502000121F08C1002AFAD170477047002001E022
:1050300001C1121F002AFBD1704700B5FEF71AF913
:105040005DF804EBFDF7F6BF3F207F2110B500F0BF
:105050005FF8B420FBF708FB3F2000F0D1F94124B2
:105060007F21204600F054F8B420FBF7FDFA2046DB
:1050700000F0C6F93F207F2100F04AF8FA20FBF744
:10508000F3FA3F2000F0BCF93E247F21204600F0D7
:105090003FF84FF41670FBF7E7FA2046BDE81040E2
:1050A00000F0AEB9FBF77CF9FBF7FCFBFEF77AFAF0
:1050B000FDF716FCFDF7C6FCFBF7B6F9FDF75EFF42
:1050C0000320FEF731FCFBF7DDF901220948114608
:1050D000FBF7D4FBFFF7B8FF074D4FF40054214610
:1050E0002846FBF7BFFB0028F9D000F075F9FEF762
:1050F00043F9F4E7000402400008024010B5FDF750
:10510000BDFCFEF7B1F9BDE81040FFF7EFBE0000AF
:105110002DE9F05FAB4C0546AB4B4FF0000804F1B6
:10512000800903F1180684F80E809FEDA80A04F1A7
:105130009E0A04F1A40B04F19807DFEDA50AE078BC
:10514000D9ED001AB7EE001AA27B17F802C0AC45E1
:1051500050D1012804D003284FF0000510D000E002
:10516000012500273D430DD002EE101AD5B2B8EE4E
:10517000422A03EB8503C2EE202AC3ED002A06E093
:105180000127EFE7D5B203EB850383ED001AA47B7B
:1051900002288D4BA3F1300303EB8403C3ED001A07
:1051A0000AD301EE101A06EB8201B8EE411AC1EEE5
:1051B000201AC1ED001A03E006EB820181ED001A0E
:1051C00081490120D9ED040A603101EB8203A1F687
:1051D000187101EB82041831C3ED000A01EB820162
:1051E00084ED000A81ED000A0AF802000BF80200C3
:1051F000BDE8F09F521CD2B2A273062AA4D3BE46C9
:1052000084F80E8022781AF80270042F1CD0002730
:105210001BF802C0BCF1040F18D04FF0000800BF0B
:105220001EF802C047EA0807BCF1FF0F11D04FF08B
:10523000000C00BF57EA0C0773D001280CD00328DC
:105240004FF000071BD008E00127E1E74FF001080D
:10525000E6E74FF0010CEDE701274FF0000C00BF2F
:1052600057EA0C070ED002EE101AD7B2B8EE422A57
:1052700003EB8703C2EE202AC3ED002A07E04FF0BC
:10528000010CEDE7D7B203EB870383ED001A277813
:1052900002284D4BA3F1300303EB8703C3ED001A43
:1052A0000AD301EE101A06EB8201B8EE411AC1EEE4
:1052B000201AC1ED001A03E006EB820181ED001A0D
:1052C00041490120D9ED040A603101EB8203A1F6C6
:1052D000187101EB82061831C3ED000A01EB82015F
:1052E00086ED000A81ED000A0AF802000BF80200C0
:1052F0003448062A0EF80250364E90F9160028441B
:1053000046D2DFE802F0030F1A25303B36F82000C2
:1053100080B2FEF733FA36F8250080B2FEF7B6FA0F
:1053200036E03FE036F8200080B2FEF747FA36F864
:10533000250080B2FEF7C4FA2AE036F8200080B2D9
:10534000FEF756FA36F8250080B2FEF7AFF91FE0F7
:1053500036F8200080B2FEF765FA36F8250080B2F4
:10536000FEF7BEF914E036F8200080B2FEF774FABA
:1053700036F8250080B2FEF7CDF909E036F82000B6
:1053800080B2FEF7B7FA36F8250080B2FEF7DCF9F6
:105390002078401CC0B2207005287FF629AF00207D
:1053A000207025E7521CD2B22270052A01D90022B2
:1053B0002270A27B521CD2B2A273062AFFF422AF43
:1053C00016E7000004000020B017002000000000D5
:1053D0000000FE4240540008084A002030B5042175
:1053E00002F19E041073A51D107B431CDBB22154F7
:1053F0002954062B1373F7D330BD0000040000209E
:10540000F0B50A490022042301F19804A61DB51D38
:105410000A73D2B2A75C874201D1B354AB54521C79
:10542000D2B20A73062AF4D3F0BD000004000020B3
:105430000000000000000000010203040607080944
:1054400000400000683C000004390000D135000035
:10545000CC320000F22F0000412D0000B72A0000DE
:10546000512800000E260000EB230000E721000079
:1054700000200000341E0000821C0000E91A000019
:1054800066190000F9170000A11600005C15000065
:105490002914000007130000F6110000F4100000AA
:1054A000001000001A0F0000410E0000740D0000F3
:1054B000B30C0000FD0B0000500B0000AE0A000012
:1054C000140A000083090000FB0800007A080000AD
:1054D000000800008D07000021070000BA06000048
:1054E00059060000FE050000A80500005705000051
:1054F0000A050000C20400007D0400003D04000015
:1055000000040000C7030000900300005D030000DA
:105510002D030000FF020000D4020000AB020000D7
:1055200085020000610200003F0200001E02000030
:1055300000020000E3010000C8010000AF0100000C
:1055400096010000800100006A0100005601000081
:1055500043010000300100001F0100000F010000A6
:1055600000010000F2000000E4000000D70000008D
:10557000CB000000C0000000B5000000AB00000040
:10558000A1000000980000009000000088000000CA
:105590008000000079000000720000006C00000034
:1055A00066000000600000005B0000005500000085
:1055B000510000004C0000004800000044000000C2
:1055C00040000000E455000800000020C80800006A
:1055D00040030008245C0008C8080020581D000093
:1055E0002C5000080005180024F400011006F401F6
:1055F0003F000102A1060128012005BD37863504C0
:105600000235000132FF01011C24100AE93A0008AA
:10561000193B0008250412450412650412C914122E
:10562000F5182184200804030904120110B7100B97
:1056300040830400DF00010102030E40079D2500A6
:1056400008A92824017A01027DFF01903C8083860D
:10565000898C8F9295989C9FA2A5A8ABAEB0B3B64B
:10566000B9BCBFC1C4C7C9CCCED1D3D5D8DADCDE72
:10567000E0E2E4E6E8EAECEDEFF0F2F3F5F6F7F855
:10568000F9FAFBFCFCFDFEFE47A875FEFEFDFCFCE6
:10569000FBFAF9F8F7F6F5F3F2F0EFEDECEAE8E6ED
:1056A000E4E2E0DEDCDAD8D5D3D1CECCC9C7C4C1C0
:1056B000BFBCB9B6B3B0AEABA8A5A29F9C9895925B
:1056C0008F8C898683807C797673706D6A6763605E
:1056D0005D5A5754514F4C494643403E3B38363350
:1056E000312E2C2A272523211F1D1B1917151312B4
:1056F000100F0D0C0A090807060504030302018AAE
:1057000025D51038030405060708090A0C0D0F10EB
:1057100012131517191B1D1F212325272A2C2E3183
:105720003336383B3E404346494C4F5154575A5DFF
:105730006063676A6D707376797C003A513964EB07
:105740000B0C0D0E0F101112131415161718191A31
:105750001B1C1D1E1F202122232425262728292A21
:105760002B2C2D2E2F303132333435363738393A11
:105770003B3C3D3E3F404142434445464748494A01
:105780004B4C4D4E4F505152535455565758595AF1
:105790005B5C5D5E5F606162636465666768696AE1
:1057A0006B6C6D6E6F707172737475767778797AD1
:1057B0007B7C7D7E7F808182838485868788898AC1
:1057C0008B8C8D8E8F909192939495969798999AB1
:1057D0009B9C9D9E9FA0A1A2A3A4A5A6A7A8A9AAA1
:1057E000ABACADAEAFB0B1B2B3B4B5B6B7B8B9BA91
:1057F000BBBCBDBEBFC0C1C2C3C4C5C6C7C8C9CA81
:10580000CBCCCDCECFD0D1D2D3D4D5D6D7D8D9DA70
:10581000DBDCDDDEDFE0E1E2E3E4E5E6E7E8E9EA60
:10582000EBECEDEEEFF0F1F2F3F4C616FDC415BAB1
:1058300055B968EBF4F3F2F1F0EFEEEDECEBEAE9D9
:10584000E8E7E6E5E4E3E2E1E0DFDEDDDCDBDAD950
:10585000D8D7D6D5D4D3D2D1D0CFCECDCCCBCAC940
:10586000C8C7C6C5C4C3C2C1C0BFBEBDBCBBBAB930
:10587000B8B7B6B5B4B3B2B1B0AFAEADACABAAA920
:10588000A8A7A6A5A4A3A2A1A09F9E9D9C9B9A9910
:105890009897969594939291908F8E8D8C8B8A8900
:1058A0008887868584838281807F7E7D7C7B7A79F0
:1058B0007877767574737271706F6E6D6C6B6A69E0
:1058C0006867666564636261605F5E5D5C5B5A59D0
:1058D0005857565554535251504F4E4D4C4B4A49C0
:1058E0004847464544434241403F3E3D3C3B3A39B0
:1058F0003837363534333231302F2E2D2C2B2A29A0
:105900002827262524232221201F1E1D1C1B1A198F
:105910001817161514131211100F0E0D0C0B461E2E
:105920000209041815020406080A0C0E10121416B7
:10593000181A1C1E2022242628339C553032343657
:10594000383A3C3E40424446484A4C4E50525456E7
:10595000585A5C5E60626466686A6C6E70727476D7
:10596000787A7C7E80828486888A8C8E90929496C7
:10597000989A9C9EA0A2A4A6A8AAACAEB0B2B4B6B7
:10598000B8BABCBEC0C2C4C6C8CACCCED0D2D4D6A7
:105990004D031C1FEEF0F2F4F6F8FAFCFEFFFDFBDF
:1059A000F9F7F5F3F1EFEFEBE9E7E5E3E1DFDDDB55
:1059B000D9D733039C55CFCFCBC9C7C5C3C1BFBD52
:1059C000BBB9B7B5B3B1AFAFABA9A7A5A3A19F9D15
:1059D0009B99979593918F8F8B89878583817F7D05
:1059E0007B79777573716F6F6B69676563615F5DF5
:1059F0005B59575553514F4F4B49474543413F3DE5
:105A00003B39373533312F2F2B294D03180A110F0E
:105A10000F0B0907050301B7154F1101174847512F
:105A200010084343444443413E3430083837373646
:105A3000363637011736355A3C1F31343D4D6584B3
:105A4000A9CFEEFFFEEAC69A6D44251105000106B6
:105A50000D141C242D34393D07032D08035101205A
:105A600005484848495B6E4E1303340556585B5D44
:105A70003C1E6B7803180474797BFB210115FE2C06
:105A80000C797774716D6966625F5C590004274D0B
:105A90004EDF52468D434445012D610313494A515F
:105AA0002101424AB15348486E40044646462511FA
:105AB0000811C011015005424242410170074040A7
:105AC0003F3F40400D4101111D2DB70311551806F0
:105AD0002D2F313232381B2E2D36172929FA11116C
